:080000000C9452000C94000066
:100008000C9400000C9400000C9400000C94000068
:100018000C9400000C9400000C9400000C94000058
:100028000C9400000C9400000C9400000C94000048
:100038000C9400000C9400000C947F000C940000B9
:100048000C9400000C9400000C940000312D5465B1
:100058006D7000322D5365740054656D703A25300B
:100068002E326620DF204300483A253032642020B3
:1000780020204C3A25303264000080C02D4E414E7D
:10008800000001002D4E414E00494E46000002007E
:1000980075028200010079028A000000F894EE27B8
:1000A800ECBBF1E0FBBFEBBFE5BF8DE0A2E0BB27F7
:1000B800ED938A95E9F780E098E0A0E6ED93019743
:1000C800E9F7E6E9F0E085919591009761F0A5914F
:1000D800B59105901590BF01F00105900D9201971B
:1000E800E1F7FB01F0CFEFE5EDBFE8E0EEBFC0E6DA
:1000F800D2E00C94930084B095B01895AA93E88147
:10010800E064E7B98BE18A95F1F7E5B7EF78E06944
:10011800E5BF8895EF77E5BFF4010C941E02BFD0C8
:10012800E72DF0E03097F9F40E948906A4E5B0E0E5
:1001380042D1E0E0EA93A1E001D1ABE5B0E03BD1E8
:10014800839907C00E948E06839BFECFE1E07E2E36
:1001580002D1849907C00E948E06849BFECFE2E0FC
:100168007E2EF9D09AC0E130A0E0FA0709F069C004
:10017800A0E0C4DFA0E6B2E0662777270E94450822
:100188000E94F7090E949206E0E0F0E06AEF73E44B
:100198000E94CF08DF01CB01E0E0F0EC6FE774E4E8
:1001A8000E941D09E0936002F0936102609362026D
:1001B800709363020E949B06E1E6F0E0FA93EA93EB
:1001C800E0916002F09161026091620270916302B5
:1001D8000E940B0A84E00E94460528960E94890620
:1001E8000E94A0060E949B060E94A406E0E0EA93F3
:1001F800A1E0A4D00E94A0060E94B90609F008F464
:1002080002C0919A92980E94B90630F40E94C306DF
:1002180009F008F401C001C002C0919892980E94A8
:10022800C30610F49198929A541411F491989298E4
:10023800859906C00E948E06859BFECF77248BD0B9
:100248002CC0E230A0E0FA0741F50E949B060E940C
:10025800A4060E9489060E94A00683990AC00E94EB
:100268008E064394E4E6E41511F4E0E001C0E42DC1
:100278004E2E84990AC00E948E065394E4E6E51532
:1002880011F4E0E001C0E52D5E2E859906C00E94BC
:100298008E06859BFECF77245ED042CFFFCFE0E06D
:1002A800EABBEBBBE7BBE8BBE4BBE5BBE6E0E1BB15
:1002B800E8E3E2BBE0E0E3BFE2BFECBFEFBDEEBDC9
:1002C800EDBDECBDE7BDE6BDEBBDEABDE9BDE8BDF2
:1002D800E2BDE5BDE4BDE3BDE9BFE5BFE4BFEAB902
:1002E800E0E8E8B9E0E4E7B9EFE8E6B9E0E0E0BF64
:1002F800EDB9E6BFA0E172D078940895AA93E8B367
:10030800EF70AE2FE881E07FEA2BE8BB8DE08A959D
:10031800F1F7C39A8DE08A95F1F7C3988DE08A9535
:10032800F1F788C0AA93A881E9DFE881E295E8831C
:10033800A881E4DF85E88A95F1F77CC0AA93E88173
:10034800F0E0EB58FD4FE081A981AE0FEBDF69804B
:10035800B88022960895A2E00E94CD06ACE0E2DFC4
:10036800A1E00E94CD06E0E0BE2E6E2E0895AA936D
:10037800A881AA3011F06A1448F0E0E0EA93B39437
:10038800AB2DDCDFA881AA3009F454C06394C19A6C
:10039800A881C8DFC1984EC0BA93AA931A93A981BD
:1003A800BA81ED91A983BA831E2FE03019F0A12FED
:1003B800DEDFF5CF10C0BA93AA931A93E981FA81C8
:1003C8003196E983FA833197E4911E2FE03019F0D2
:1003D800A12FCDDFF3CF188123960895AA93E7B311
:1003E800E06FE7BBBB9AB99ABA9AC398C198C2980A
:1003F800A880E881E058E0937702E881E054E09330
:100408007802A4E1B0E00E94CF070E94D3060E94C0
:10041800D3060E94D306A0E271DF88EC90E0019732
:10042800F1F7A8E27FDFA4E07DDFA5E87BDFA6E0A7
:1004380079DF91DF21960895BA93AA931A930A93C4
:10044800AA81BB8112960E94ED09309729F1AA81F1
:10045800BB8114960E94ED098F01309761F002303C
:10046800E0E01E0780F0F80131978F01AA81BB8177
:100478001496ED93FC93AA81BB8112960E94DB0629
:100488003197AC81A083AA81BB810E94ED09FF232B
:1004980012F00E94DB0606C0AA81BB81EFEFFFEFD6
:1004A800ED93FC9319810881259608950E94E10631
:1004B800E0E8EA83EFE3EB830E94280AEE85FF85F4
:1004C800EF3FAFEFFA0749F4E885F985FA93EA9325
:1004D800A4E8B0E00E947A05B7C0EF3FAFE7FA079B
:1004E80049F4E885F985FA93EA93A5E8B0E00E9413
:1004F8007A05AAC0AB85A73010F0E6E0EB871B852C
:10050800E12F1150E03019F00E94E806F9CFEC8590
:10051800FD856E857F850E94220A21F430E00E94C5
:10052800E8062DC03B850E94F70609F008F40BC0C9
:100538000E94E8060E94F70628F00E9402070E941F
:100548000707F8CF0DC00E94F70640F40E94020783
:100558000E9413070E941A073150F5CF0E94E8063F
:10056800EC85FD856E857F850E941F070E941A070E
:100578000E94F70620F00E9402070E94070710E079
:10058800EB85E117A8F1AC81BD818E819F810E9426
:1005980026070E941F07DF01CB010E94D105EC83CB
:1005A800FD836E837F830E9402070E941D090E94BB
:1005B8000C080E2F0E942D070E943407FF2766277C
:1005C80077270E944508AC81BD818E819F810E945A
:1005D800CF080E9402070E9439070E941A07E12FDC
:1005E8001F5FE03069F60E942D07EEE2EC93C8CF5A
:1005F8000E943E073197AA85A08330302CF43195AC
:10060800A885B985EDE203C0A885B985EBE2EC932E
:100618000E943E070E943E073197BF01A32FEAE0E0
:100628000E94A709E05DDB01EC930E943E07319729
:10063800BF01A32FEAE00E94D109E05DDB01EC9342
:10064800A885B985E0E0EC930E942F0A609608958A
:10065800BA93AA93EF9761970E94260A10E0FE01C9
:10066800E85AFF4F0190F081E02DE887F987FE01F5
:10067800EA5AFF4F0190F081E02DEE83FF83AE81AF
:10068800BF81E0E0F0E0ED93FC93DE01A45ABF4F98
:100698000E94DB063197E4912E2FE03009F4E9C17E
:1006A800E12FE03039F4253211F411E002C00E9444
:1006B8004407DEC1E130C1F4253219F40E94440731
:1006C800D6C112E0E0E0ED8B00E02D3211F401E03C
:1006D800CFC12B3219F4EBE2ED8BCAC1203219F4E9
:1006E800E0E2ED8BC5C102C0E23039F450E013E01E
:1006F800203311F40068BCC102C0E33091F4203308
:1007080010F02A3308F007C0AAE05A9F502DE22FB4
:10071800E0535E0FADC140E02E3211F414E0A8C1E1
:100728000FC0E43099F4203310F02A3308F008C0E1
:100738000062AAE04A9F402DE22FE0534E0F98C175
:100748002C3619F4026015E093C103C0E53009F0B6
:100758008FC1E22FE33659F40E944B070E945207DB
:100768000E944B07A481AA930E94590780C1E534CF
:1007780011F0E53609F403C0E63609F048C0FE0179
:100788007696EE87FF870E945F070E94F1090E9414
:1007980066070E946B07AD85AA2332F0AD89AB329C
:1007A80059F0A03281F017C00E946D070E94D90746
:1007B8000E946607EDE2ED8B07FF05C0ED89EA931D
:1007C8000E94590708C0EE85FF853196EE87FF879E
:1007D8003197AD89A08305FF46E0263651F40E9483
:1007E8006D070E940B0A4A93AB89BC890E94E805F1
:1007F80009C00E946D070E940B0A4A932A93AC898C
:10080800BD8954DEFE0176960E9472071EC0E3374A
:1008180039F40E946B070E947A070E9472070EC083
:10082800E037C1F40E946B070E947A07EE87FF87C2
:10083800AE85BF850E9493051E2F08600F77403054
:1008480011F0411708F001C0142F40E0E0E0EC8BF4
:1008580030E06DC0E43611F0E93611F4046002C0EE
:10086800E537A1F4EAE0EC8B01FF08C0E0E0FAEC20
:100878006AE97BE30E947F071AE022C0E0E1F7E221
:1008880060E070E00E947F0715E01AC0E83511F4B7
:10089800086003C0E83709F0EAC0E0E1EC8B01FF2B
:1008A80008C0E0E0F0E060E070E10E947F0718E037
:1008B80007C0E0E0F0E160E070E00E947F0714E02C
:1008C800403011F00F7701C041E001FF08C00E94DD
:1008D8006B070E945F0714960E94F1090FC002FF80
:1008E80007C00E946B070E947A070E94940906C0FD
:1008F8000E946B070E947A0766277727EA87FB879B
:100908006C877D8702FF12C0AD85AA2342F40E943E
:100918006D070E9486090E946607EDE2ED8BED895E
:10092800E03019F01F5F4F5F01C00B7F342F00FDCF
:1009380014C0151710F4351708F00FC007FF08C0CA
:1009480002FF04C00B7F2D89115001C020E301C0B4
:1009580020E20E9444075150ECCF141790F4006134
:1009680002FF06C00E94840709F0515011504150FF
:10097800E0E3EA930E945907503009F05150415082
:10098800ECCF312FEC89E030B9F43030A1F003FF1F
:1009980006C0EE85FF852591EE87FF8705C0AE85E9
:1009A800BF852D91AE87BF870E944407503009F05C
:1009B80051503150EACF51C00E9496070E94AC09AD
:1009C8002E2F2A3030F003FF02C0295C01C0295ABB
:1009D80001C0205D04FD21C0213360F4A889B989D4
:1009E8008A899B89A130E0E0BE07E0E08E07E0E05D
:1009F8009E0709F40BC0431740F4531710F000FF8B
:100A080001C010C020E207FF08C020E3006102FF18
:100A180004C00E94840709F051500E9444075030D6
:100A280009F0515031500E9496070E94DD090E943A
:100A38006607EC89A889B9898A899B89FF2766276F
:100A480077270E94AC090E947F07E889F9896A899B
:100A58007B890E94220A09F0AFCF00FF08C05030FE
:100A680031F05150E0E2EA930E945907F8CF10E0C4
:100A78000CCEAE81BF810E94ED090E942D0AEF962F
:100A88006F960895FF92F82E26970E94280A0E94D2
:100A98009F07309719F4EFEFFFEF23C0DE0116969A
:100AA8000E9482098D010E949F07EE83FF83E0E088
:100AB800E887E987DE011A960E9482090E94ED09FB
:100AC800FA93EA931A930A93E0E2F2E0FA93EA932C
:100AD800DE011A96BDDD9F01AE81BF81E0E0EC9397
:100AE800F9010E942F0A2A96FF900895BA93AA93B3
:100AF800E991F991A991B991CD0105900D92002044
:100B0800E1F7FC010895BA93AA93A991B991EE2748
:100B1800FF276D91662311F03196FBCF0895BA93A4
:100B2800AA93AA27BB27E991F9910590002011F013
:100B38001196FBCFFD0108950E94100A7B816A81FE
:100B4800F981E88177FB770F67FD7160972F9E57D2
:100B580081F078F0983190F4AA27BB278827089469
:100B68008795B795A7959A95D1F7EA23FB2368232C
:100B780005C0E8947727EE27FF2766276F777695D5
:100B880008F4606877F9A991B99189919991EA1760
:100B9800FB076807790797FB08950E94100A0E94CF
:100BA800010A0E94A0050E94060A19F40E94FC0985
:100BB80009C0E6F70E94FC09A0E0B0E080E89FE3E6
:100BC8000E94780824960895F8D0E0E0EA83EFE3DD
:100BD800EB831A930A93EB85FC85EF3FAFEFFA0797
:100BE80031F4B0D1ACE8B0E00E947A058AC0EF3F9A
:100BF800AFE7FA0731F4A6D1ADE8B0E00E947A0574
:100C080080C0AC85AA2352F4E985FA856B857C857A
:100C18000E94D9079CD1A0D1EDE2EC93A885A7301A
:100C280010F0E6E0E8871885E12F1150E03021F058
:100C38009AD108D19DD1F8CFA0D10E947F0887D141
:100C480010E0E0E0F0E060E87FE392D196D10E9406
:100C5800620968F088D1E3D08BD11F5F173230F07A
:100C680071D1A1E9B0E00E947A054BC0EFCF1030F6
:100C780021F472D1E0E3EC9320C0E12F1150E03071
:100C8800E1F071D1DFD0D7D0DF01CB010E94D105CF
:100C98006FD173D10E941D090E940C080E2F5CD1E0
:100CA800DFD0F0E060D10E9494090E9445080E94BC
:100CB800CF086CD1DAD04BD1E0CFE885E030E9F04D
:100CC8004BD1EEE2EC93E885E150E887EF5FA9F0BD
:100CD8005DD1A5D03CD1E985FA856B857C850E94DC
:100CE8000C080E2F39D1BCD0F0E050D10E949409E5
:100CF8000E944508BAD02BD1E6CFAE81BF81E0E093
:100D0800EC93198108812D960895E0E0EA93A0E01C
:100D18000C94A201A6E9B0E00C94CF07A091600260
:100D2800B091610280916202909163020895E4E6B5
:100D3800F2E0FA93EA930895A4E6B2E00C94D001A5
:100D4800E0E7F0E0FA93EA93E42DFF276627772798
:100D58000E940B0AE52DFF27662777270E940B0ABA
:100D680088E00E9446052C960895E42DD7DFFF27DA
:100D7800662777270E9445080E9462090895E52D95
:100D8800CDDFFF27662777270E9445080E94620962
:100D980008950E949601A3E0B0E00C94CF07A0E369
:100DA8000E94820188EC90E00197F1F70895ED9197
:100DB800FD913196FE93EE930895BA93AA932497E2
:100DC800E0E0E883E9830895AC81BD818E819F814D
:100DD800E0E0F0E060E271E40E94CF08EC83FD837C
:100DE8006E837F830895EC81FD816E817F81AC8560
:100DF800BD858E859F850E9462090895AC85BD8555
:100E08008E859F850895EDECFCEC6CEC7DE30E94EB
:100E1800CF08EC87FD876E877F873F5F0895E0E006
:100E2800F0E060E271E40E94CF080895EC87FD8746
:100E38006E877F870895A0E0B0E080E09FE30E947E
:100E48007F080895EDECFCEC6CEC7DE30E94CF0884
:100E58000895A885B9851196A887B9871197089527
:100E6800E02FE05DEC93E02F08950E94150A0E94A0
:100E780078080895E885F9853196E887F98708950F
:100E88002A93AF81B885E985FA8509950895FE0109
:100E9800E65AFF4F0190F081E02D08953497DE0166
:100EA800A65ABF4FED93FC930895AF81B885E985A5
:100EB800FA8509950895DE01A65ABF4F0D90BC9199
:100EC800A02D0895EA87FB876C877D870895DFDF6B
:100ED800E5CFEA85FB856C857D850895EE87FF87DC
:100EE800AE85BF850E9487051E2F0895E4DF1496FE
:100EF8000E94ED090895E88BF98B6A8B7B8B089526
:100F08000B7FED89EA93DE01A95ABF4F0D90BC9182
:100F1800A02DFE01E75AFF4F0190F081E02D0995C1
:100F280050300895E889F9896A897B89AA85BB8543
:100F38008C859D850895DE011C960E9482090E9479
:100F4800ED090895EE81FF81FA93EA930895E98700
:100F5800FA876B877C870895AE81BF811196AE832F
:100F6800BF8311970895AA81BB818C819D810895C3
:100F7800EA83FB836C837D830895EA81FB816C811E
:100F88007D81A985BA858B859C850895A985BA85B3
:100F98008B859C850895109639F0A89580ED97E08B
:100FA8000197F1F71197C9F708953097604070409D
:100FB80009F070580895552342F4503811F4E0FFB1
:100FC80004C03196691F791F6BF050E8572711F458
:100FD8005F93CFC05F3F31F0660F000C5795679560
:100FE800752F08955F9300200AF0CFC0C8C050E85D
:100FF800192E1522880F991F9527550F879550E8A8
:10100800072E0522660F771F7527550F67950895D8
:10101800689401C0E8945F93F2DF703818F07F3F5E
:1010280008F4A7C056E1571BAAF4519558300EF49E
:10103800593030F0EFEFFFEF6FEF7FE777F91AC025
:1010480077275523B9F0EE0FFF1F661F771F5A95B4
:10105800D1F710C07727583028F0EF2FF62F672FD9
:101068005850F9CF552331F076956795F795E79560
:101078005A95D1F700200AF445D15F9108956894F4
:1010880001C0E894309760407040B1F0002426F029
:10109800772312F4009436D1172E7EE1112032F016
:1010A8007A95EE0FFF1F661F111CF9CFEF2FF62F51
:1010B800612D5F938ADF5F9108954F93AF01FD0122
:1010C800DA01AB01BC01CA01402D012C142E4F914D
:1010D8000895EA0FFB1F681F0895E095F095609545
:1010E800EF5FFF4F6F4F08955F9381DF903871F185
:1010F80050E8152604C05F937ADF903839F17038CC
:1011080021F1572F591B2BF112F4D7DFFACF5831A1
:1011180018F0AA27BB278827583028F0AB2FB82FFC
:1011280088275850F9CF552329F08695B795A79564
:101138005A95D9F7502D512572F0CBDF38F46795C1
:10114800F795E795739513F420C0B7DF3EDF5F91FD
:101158000895D8F7FBCFEA1BFB0B680B51F010F48E
:101168000094BBDF662392F3EE0FFF1F661F7A958C
:10117800CBF7EE27FF27662777275F910895EFEFD4
:10118800FFEF6FE77FEF5F910895EFEFFFEF6FE7F6
:101198007FE75F9108955F932ADF703851F39038A5
:1011A80041F301240894791F23F41CF300203AF337
:1011B800ECCF0F921F932F933F934F931127222722
:1011C8009927689FA0018F9F302D410D591F6B9F54
:1011D800300D411D591F8E9F27D0BF9F25D06A9F74
:1011E80023D0BE9F1DD0AF9F1BD0AE9F110D291FCE
:1011F800391F491F591FE32FF42F652F522F4F9185
:101208003F912F911F910F9066232AF0550FEE1FE3
:10121800FF1F661F02C073954BF2CDDE5F910895E4
:10122800100D211D391F02C0200D311D491F591FE6
:1012380008955F93DCDE703821F411200AF49FCF03
:10124800A4CF903809F495CF01240894970B1BF488
:10125800D4F30020F3CF792F1F932F933F934F930D
:1012680011241127222733274427552790E2AE1748
:10127800BF078607410730F0AE1BBF0B860B410B3B
:10128800089401C08894551F221F331F111CAA1FE0
:10129800BB1F881F441F9A9551F7F901612D4F9183
:1012A8003F912F911F91662332F0550FEE1FFF1FBC
:1012B800661F7A9543F27FDE5F91089599239AF02D
:1012C800772342F0971748F029F4AE17BF0786072F
:1012D80020F031F09894889408959894089408958B
:1012E8001894889408957723C2F7971798F3A9F765
:1012F800EA17FB07680788F399F3ECCF0024AF0DD2
:10130800B01D0895F09560957095E195FF4F6F4F6A
:101318007F4F0895FE2FFF0FFF0B6F2F7F2F08952C
:101328006F2F660F660B762F0895002498E0AA0F9A
:10133800001C0E1A10F40E0E01C0A1609A95B9F7A0
:10134800EA2FA02D089539D0F0DF0EF4E195089525
:101358003F934F935F93002411244427552730E28D
:10136800AA0FBB1F881F991F001C111C441F551F63
:101378000E1A1F0A460B570B28F40E0E1F1E461F87
:10138800571F01C0A1603A9559F7FD01BC01D00172
:10139800CA015F914F913F910895E894A7FF02C059
:1013A800A1956894E7FDE195C0DFEA2F0EF4E19579
:1013B8000895CEDFFD01BC010895E894E7FF02C05F
:1013C800E1956894A7FF04C0A19500F8039400FA7A
:1013D8000895ED91FC9111970895ED91FD916D910E
:1013E8007C9113970895ED93FD936D937C930895E5
:1013F800E881F9816A817B810895A881B9818A8110
:101408009B810895E883F9836A837B8308957A939F
:101418006A93FA93EA9308959A938A93BA93AA934C
:101428000895182E862F612D192E972F712D1B2E9A
:10143800BF2FF12D1A2EAE2FE12D08953097604061
:10144800704008955A934A933A932A931A930A93A9
:1014580008955D814C813B812A8119810881089515
:00000001FF
